{
  "_format": "hh-sol-artifact-1",
  "contractName": "WalletProj",
  "sourceName": "contracts/WalletProj.sol",
  "abi": [
    {
      "inputs": [
        {
          "internalType": "string",
          "name": "_name",
          "type": "string"
        },
        {
          "internalType": "string",
          "name": "_symbol",
          "type": "string"
        }
      ],
      "stateMutability": "nonpayable",
      "type": "constructor"
    },
    {
      "anonymous": false,
      "inputs": [
        {
          "indexed": true,
          "internalType": "address",
          "name": "owner",
          "type": "address"
        },
        {
          "indexed": true,
          "internalType": "address",
          "name": "approved",
          "type": "address"
        },
        {
          "indexed": true,
          "internalType": "uint256",
          "name": "tokenId",
          "type": "uint256"
        }
      ],
      "name": "Approval",
      "type": "event"
    },
    {
      "anonymous": false,
      "inputs": [
        {
          "indexed": true,
          "internalType": "address",
          "name": "owner",
          "type": "address"
        },
        {
          "indexed": true,
          "internalType": "address",
          "name": "operator",
          "type": "address"
        },
        {
          "indexed": false,
          "internalType": "bool",
          "name": "approved",
          "type": "bool"
        }
      ],
      "name": "ApprovalForAll",
      "type": "event"
    },
    {
      "anonymous": false,
      "inputs": [
        {
          "indexed": true,
          "internalType": "address",
          "name": "from",
          "type": "address"
        },
        {
          "indexed": true,
          "internalType": "address",
          "name": "to",
          "type": "address"
        },
        {
          "indexed": true,
          "internalType": "uint256",
          "name": "tokenId",
          "type": "uint256"
        }
      ],
      "name": "Transfer",
      "type": "event"
    },
    {
      "stateMutability": "payable",
      "type": "fallback"
    },
    {
      "inputs": [
        {
          "internalType": "address",
          "name": "_address",
          "type": "address"
        }
      ],
      "name": "addAddressToWhitelist",
      "outputs": [],
      "stateMutability": "nonpayable",
      "type": "function"
    },
    {
      "inputs": [
        {
          "internalType": "address",
          "name": "to",
          "type": "address"
        },
        {
          "internalType": "uint256",
          "name": "tokenId",
          "type": "uint256"
        }
      ],
      "name": "approve",
      "outputs": [],
      "stateMutability": "nonpayable",
      "type": "function"
    },
    {
      "inputs": [
        {
          "internalType": "address",
          "name": "owner",
          "type": "address"
        }
      ],
      "name": "balanceOf",
      "outputs": [
        {
          "internalType": "uint256",
          "name": "",
          "type": "uint256"
        }
      ],
      "stateMutability": "view",
      "type": "function"
    },
    {
      "inputs": [
        {
          "internalType": "address",
          "name": "_address",
          "type": "address"
        }
      ],
      "name": "checkIfWhitelisted",
      "outputs": [
        {
          "internalType": "bool",
          "name": "",
          "type": "bool"
        }
      ],
      "stateMutability": "view",
      "type": "function"
    },
    {
      "inputs": [],
      "name": "depositToContract",
      "outputs": [],
      "stateMutability": "payable",
      "type": "function"
    },
    {
      "inputs": [
        {
          "internalType": "uint256",
          "name": "tokenId",
          "type": "uint256"
        }
      ],
      "name": "getApproved",
      "outputs": [
        {
          "internalType": "address",
          "name": "",
          "type": "address"
        }
      ],
      "stateMutability": "view",
      "type": "function"
    },
    {
      "inputs": [],
      "name": "getTotalContractAmount",
      "outputs": [
        {
          "internalType": "uint256",
          "name": "",
          "type": "uint256"
        }
      ],
      "stateMutability": "view",
      "type": "function"
    },
    {
      "inputs": [
        {
          "internalType": "address",
          "name": "owner",
          "type": "address"
        },
        {
          "internalType": "address",
          "name": "operator",
          "type": "address"
        }
      ],
      "name": "isApprovedForAll",
      "outputs": [
        {
          "internalType": "bool",
          "name": "",
          "type": "bool"
        }
      ],
      "stateMutability": "view",
      "type": "function"
    },
    {
      "inputs": [],
      "name": "name",
      "outputs": [
        {
          "internalType": "string",
          "name": "",
          "type": "string"
        }
      ],
      "stateMutability": "view",
      "type": "function"
    },
    {
      "inputs": [
        {
          "internalType": "uint256",
          "name": "tokenId",
          "type": "uint256"
        }
      ],
      "name": "ownerOf",
      "outputs": [
        {
          "internalType": "address",
          "name": "",
          "type": "address"
        }
      ],
      "stateMutability": "view",
      "type": "function"
    },
    {
      "inputs": [
        {
          "internalType": "address",
          "name": "_address",
          "type": "address"
        }
      ],
      "name": "removeAddressFromWhitelist",
      "outputs": [],
      "stateMutability": "nonpayable",
      "type": "function"
    },
    {
      "inputs": [
        {
          "internalType": "address",
          "name": "from",
          "type": "address"
        },
        {
          "internalType": "address",
          "name": "to",
          "type": "address"
        },
        {
          "internalType": "uint256",
          "name": "tokenId",
          "type": "uint256"
        }
      ],
      "name": "safeTransferFrom",
      "outputs": [],
      "stateMutability": "nonpayable",
      "type": "function"
    },
    {
      "inputs": [
        {
          "internalType": "address",
          "name": "from",
          "type": "address"
        },
        {
          "internalType": "address",
          "name": "to",
          "type": "address"
        },
        {
          "internalType": "uint256",
          "name": "tokenId",
          "type": "uint256"
        },
        {
          "internalType": "bytes",
          "name": "data",
          "type": "bytes"
        }
      ],
      "name": "safeTransferFrom",
      "outputs": [],
      "stateMutability": "nonpayable",
      "type": "function"
    },
    {
      "inputs": [
        {
          "internalType": "address",
          "name": "operator",
          "type": "address"
        },
        {
          "internalType": "bool",
          "name": "approved",
          "type": "bool"
        }
      ],
      "name": "setApprovalForAll",
      "outputs": [],
      "stateMutability": "nonpayable",
      "type": "function"
    },
    {
      "inputs": [
        {
          "internalType": "bytes4",
          "name": "interfaceId",
          "type": "bytes4"
        }
      ],
      "name": "supportsInterface",
      "outputs": [
        {
          "internalType": "bool",
          "name": "",
          "type": "bool"
        }
      ],
      "stateMutability": "view",
      "type": "function"
    },
    {
      "inputs": [],
      "name": "symbol",
      "outputs": [
        {
          "internalType": "string",
          "name": "",
          "type": "string"
        }
      ],
      "stateMutability": "view",
      "type": "function"
    },
    {
      "inputs": [
        {
          "internalType": "uint256",
          "name": "tokenId",
          "type": "uint256"
        }
      ],
      "name": "tokenURI",
      "outputs": [
        {
          "internalType": "string",
          "name": "",
          "type": "string"
        }
      ],
      "stateMutability": "view",
      "type": "function"
    },
    {
      "inputs": [],
      "name": "transferAll",
      "outputs": [],
      "stateMutability": "nonpayable",
      "type": "function"
    },
    {
      "inputs": [
        {
          "internalType": "uint256",
          "name": "_transferAmount",
          "type": "uint256"
        },
        {
          "internalType": "address",
          "name": "_someone",
          "type": "address"
        }
      ],
      "name": "transferAmountFromContract",
      "outputs": [],
      "stateMutability": "nonpayable",
      "type": "function"
    },
    {
      "inputs": [
        {
          "internalType": "address",
          "name": "from",
          "type": "address"
        },
        {
          "internalType": "address",
          "name": "to",
          "type": "address"
        },
        {
          "internalType": "uint256",
          "name": "tokenId",
          "type": "uint256"
        }
      ],
      "name": "transferFrom",
      "outputs": [],
      "stateMutability": "nonpayable",
      "type": "function"
    },
    {
      "inputs": [
        {
          "internalType": "address",
          "name": "",
          "type": "address"
        }
      ],
      "name": "whitelistedAddresses",
      "outputs": [
        {
          "internalType": "bool",
          "name": "",
          "type": "bool"
        }
      ],
      "stateMutability": "view",
      "type": "function"
    },
    {
      "stateMutability": "payable",
      "type": "receive"
    }
  ],
  "bytecode": "0x60806040523480156200001157600080fd5b506040516200344e3803806200344e83398181016040528101906200003791906200023b565b818181600090816200004a91906200050b565b5080600190816200005c91906200050b565b50505033600660006101000a81548173ffffffffffffffffffffffffffffffffffffffff021916908373ffffffffffffffffffffffffffffffffffffffff1602179055505050620005f2565b6000604051905090565b600080fd5b600080fd5b600080fd5b600080fd5b6000601f19601f8301169050919050565b7f4e487b7100000000000000000000000000000000000000000000000000000000600052604160045260246000fd5b6200011182620000c6565b810181811067ffffffffffffffff82111715620001335762000132620000d7565b5b80604052505050565b600062000148620000a8565b905062000156828262000106565b919050565b600067ffffffffffffffff821115620001795762000178620000d7565b5b6200018482620000c6565b9050602081019050919050565b60005b83811015620001b157808201518184015260208101905062000194565b60008484015250505050565b6000620001d4620001ce846200015b565b6200013c565b905082815260208101848484011115620001f357620001f2620000c1565b5b6200020084828562000191565b509392505050565b600082601f83011262000220576200021f620000bc565b5b815162000232848260208601620001bd565b91505092915050565b60008060408385031215620002555762000254620000b2565b5b600083015167ffffffffffffffff811115620002765762000275620000b7565b5b620002848582860162000208565b925050602083015167ffffffffffffffff811115620002a857620002a7620000b7565b5b620002b68582860162000208565b9150509250929050565b600081519050919050565b7f4e487b7100000000000000000000000000000000000000000000000000000000600052602260045260246000fd5b600060028204905060018216806200031357607f821691505b602082108103620003295762000328620002cb565b5b50919050565b60008190508160005260206000209050919050565b60006020601f8301049050919050565b600082821b905092915050565b600060088302620003937fffffffffffffffffffffffffffffffffffffffffffffffffffffffffffffffff8262000354565b6200039f868362000354565b95508019841693508086168417925050509392505050565b6000819050919050565b6000819050919050565b6000620003ec620003e6620003e084620003b7565b620003c1565b620003b7565b9050919050565b6000819050919050565b6200040883620003cb565b620004206200041782620003f3565b84845462000361565b825550505050565b600090565b6200043762000428565b62000444818484620003fd565b505050565b5b818110156200046c57620004606000826200042d565b6001810190506200044a565b5050565b601f821115620004bb5762000485816200032f565b620004908462000344565b81016020851015620004a0578190505b620004b8620004af8562000344565b83018262000449565b50505b505050565b600082821c905092915050565b6000620004e060001984600802620004c0565b1980831691505092915050565b6000620004fb8383620004cd565b9150826002028217905092915050565b6200051682620002c0565b67ffffffffffffffff811115620005325762000531620000d7565b5b6200053e8254620002fa565b6200054b82828562000470565b600060209050601f8311600181146200058357600084156200056e578287015190505b6200057a8582620004ed565b865550620005ea565b601f19841662000593866200032f565b60005b82811015620005bd5784890151825560018201915060208501945060208101905062000596565b86831015620005dd5784890151620005d9601f891682620004cd565b8355505b6001600288020188555050505b505050505050565b612e4c80620006026000396000f3fe60806040526004361061012e5760003560e01c80636352211e116100ab578063b218ddf51161006f578063b218ddf514610408578063b88d4fde14610431578063c87b56dd1461045a578063c8f781c214610497578063d19febcf146104a1578063e985e9c5146104cc57610135565b80636352211e1461031157806370a082311461034e5780637b9417c81461038b57806395d89b41146103b4578063a22cb465146103df57610135565b8063095ea7b3116100f2578063095ea7b31461023057806323b872dd146102595780632660a92e14610282578063286dd3f5146102bf57806342842e0e146102e857610135565b806301ffc9a714610137578063051f4f6f1461017457806306c933d81461018b57806306fdde03146101c8578063081812fc146101f357610135565b3661013557005b005b34801561014357600080fd5b5061015e60048036038101906101599190611e9f565b610509565b60405161016b9190611ee7565b60405180910390f35b34801561018057600080fd5b506101896105eb565b005b34801561019757600080fd5b506101b260048036038101906101ad9190611f60565b610732565b6040516101bf9190611ee7565b60405180910390f35b3480156101d457600080fd5b506101dd610752565b6040516101ea919061201d565b60405180910390f35b3480156101ff57600080fd5b5061021a60048036038101906102159190612075565b6107e4565b60405161022791906120b1565b60405180910390f35b34801561023c57600080fd5b50610257600480360381019061025291906120cc565b61082a565b005b34801561026557600080fd5b50610280600480360381019061027b919061210c565b610941565b005b34801561028e57600080fd5b506102a960048036038101906102a49190611f60565b6109a1565b6040516102b69190611ee7565b60405180910390f35b3480156102cb57600080fd5b506102e660048036038101906102e19190611f60565b6109f7565b005b3480156102f457600080fd5b5061030f600480360381019061030a919061210c565b610b65565b005b34801561031d57600080fd5b5061033860048036038101906103339190612075565b610b85565b60405161034591906120b1565b60405180910390f35b34801561035a57600080fd5b5061037560048036038101906103709190611f60565b610c0b565b604051610382919061216e565b60405180910390f35b34801561039757600080fd5b506103b260048036038101906103ad9190611f60565b610cc2565b005b3480156103c057600080fd5b506103c9610eab565b6040516103d6919061201d565b60405180910390f35b3480156103eb57600080fd5b50610406600480360381019061040191906121b5565b610f3d565b005b34801561041457600080fd5b5061042f600480360381019061042a91906121f5565b610f53565b005b34801561043d57600080fd5b506104586004803603810190610453919061236a565b611073565b005b34801561046657600080fd5b50610481600480360381019061047c9190612075565b6110d5565b60405161048e919061201d565b60405180910390f35b61049f61113d565b005b3480156104ad57600080fd5b506104b661113f565b6040516104c3919061216e565b60405180910390f35b3480156104d857600080fd5b506104f360048036038101906104ee91906123ed565b611147565b6040516105009190611ee7565b60405180910390f35b60007f80ac58cd000000000000000000000000000000000000000000000000000000007bffffffffffffffffffffffffffffffffffffffffffffffffffffffff1916827bffffffffffffffffffffffffffffffffffffffffffffffffffffffff191614806105d457507f5b5e139f000000000000000000000000000000000000000000000000000000007bffffffffffffffffffffffffffffffffffffffffffffffffffffffff1916827bffffffffffffffffffffffffffffffffffffffffffffffffffffffff1916145b806105e457506105e3826111db565b5b9050919050565b600660009054906101000a900473ffffffffffffffffffffffffffffffffffffffff1673ffffffffffffffffffffffffffffffffffffffff163373ffffffffffffffffffffffffffffffffffffffff161461067b576040517f08c379a000000000000000000000000000000000000000000000000000000000815260040161067290612479565b60405180910390fd5b3373ffffffffffffffffffffffffffffffffffffffff166108fc3073ffffffffffffffffffffffffffffffffffffffff1663d19febcf6040518163ffffffff1660e01b8152600401602060405180830381865afa1580156106e0573d6000803e3d6000fd5b505050506040513d601f19601f8201168201806040525081019061070491906124ae565b9081150290604051600060405180830381858888f1935050505015801561072f573d6000803e3d6000fd5b50565b60076020528060005260406000206000915054906101000a900460ff1681565b6060600080546107619061250a565b80601f016020809104026020016040519081016040528092919081815260200182805461078d9061250a565b80156107da5780601f106107af576101008083540402835291602001916107da565b820191906000526020600020905b8154815290600101906020018083116107bd57829003601f168201915b5050505050905090565b60006107ef82611245565b6004600083815260200190815260200160002060009054906101000a900473ffffffffffffffffffffffffffffffffffffffff169050919050565b600061083582610b85565b90508073ffffffffffffffffffffffffffffffffffffffff168373ffffffffffffffffffffffffffffffffffffffff16036108a5576040517f08c379a000000000000000000000000000000000000000000000000000000000815260040161089c906125ad565b60405180910390fd5b8073ffffffffffffffffffffffffffffffffffffffff166108c4611290565b73ffffffffffffffffffffffffffffffffffffffff1614806108f357506108f2816108ed611290565b611147565b5b610932576040517f08c379a00000000000000000000000000000000000000000000000000000000081526004016109299061263f565b60405180910390fd5b61093c8383611298565b505050565b61095261094c611290565b82611351565b610991576040517f08c379a0000000000000000000000000000000000000000000000000000000008152600401610988906126d1565b60405180910390fd5b61099c8383836113e6565b505050565b6000600760008373ffffffffffffffffffffffffffffffffffffffff1673ffffffffffffffffffffffffffffffffffffffff16815260200190815260200160002060009054906101000a900460ff169050919050565b600660009054906101000a900473ffffffffffffffffffffffffffffffffffffffff1673ffffffffffffffffffffffffffffffffffffffff163373ffffffffffffffffffffffffffffffffffffffff1614610a87576040517f08c379a0000000000000000000000000000000000000000000000000000000008152600401610a7e90612479565b60405180910390fd5b600760008273ffffffffffffffffffffffffffffffffffffffff1673ffffffffffffffffffffffffffffffffffffffff16815260200190815260200160002060009054906101000a900460ff16610b13576040517f08c379a0000000000000000000000000000000000000000000000000000000008152600401610b0a9061273d565b60405180910390fd5b600760008273ffffffffffffffffffffffffffffffffffffffff1673ffffffffffffffffffffffffffffffffffffffff16815260200190815260200160002060006101000a81549060ff021916905550565b610b8083838360405180602001604052806000815250611073565b505050565b600080610b91836116df565b9050600073ffffffffffffffffffffffffffffffffffffffff168173ffffffffffffffffffffffffffffffffffffffff1603610c02576040517f08c379a0000000000000000000000000000000000000000000000000000000008152600401610bf9906127a9565b60405180910390fd5b80915050919050565b60008073ffffffffffffffffffffffffffffffffffffffff168273ffffffffffffffffffffffffffffffffffffffff1603610c7b576040517f08c379a0000000000000000000000000000000000000000000000000000000008152600401610c729061283b565b60405180910390fd5b600360008373ffffffffffffffffffffffffffffffffffffffff1673ffffffffffffffffffffffffffffffffffffffff168152602001908152602001600020549050919050565b600660009054906101000a900473ffffffffffffffffffffffffffffffffffffffff1673ffffffffffffffffffffffffffffffffffffffff163373ffffffffffffffffffffffffffffffffffffffff1614610d52576040517f08c379a0000000000000000000000000000000000000000000000000000000008152600401610d4990612479565b60405180910390fd5b80600760008273ffffffffffffffffffffffffffffffffffffffff1673ffffffffffffffffffffffffffffffffffffffff16815260200190815260200160002060009054906101000a900460ff1615610de0576040517f08c379a0000000000000000000000000000000000000000000000000000000008152600401610dd7906128a7565b60405180910390fd5b600073ffffffffffffffffffffffffffffffffffffffff168273ffffffffffffffffffffffffffffffffffffffff1603610e4f576040517f08c379a0000000000000000000000000000000000000000000000000000000008152600401610e4690612913565b60405180910390fd5b6001600760008473ffffffffffffffffffffffffffffffffffffffff1673ffffffffffffffffffffffffffffffffffffffff16815260200190815260200160002060006101000a81548160ff0219169083151502179055505050565b606060018054610eba9061250a565b80601f0160208091040260200160405190810160405280929190818152602001828054610ee69061250a565b8015610f335780601f10610f0857610100808354040283529160200191610f33565b820191906000526020600020905b815481529060010190602001808311610f1657829003601f168201915b5050505050905090565b610f4f610f48611290565b838361171c565b5050565b600660009054906101000a900473ffffffffffffffffffffffffffffffffffffffff1673ffffffffffffffffffffffffffffffffffffffff163373ffffffffffffffffffffffffffffffffffffffff1614610fe3576040517f08c379a0000000000000000000000000000000000000000000000000000000008152600401610fda90612479565b60405180910390fd5b8180471015611027576040517f08c379a000000000000000000000000000000000000000000000000000000000815260040161101e906129cb565b60405180910390fd5b8173ffffffffffffffffffffffffffffffffffffffff166108fc849081150290604051600060405180830381858888f1935050505015801561106d573d6000803e3d6000fd5b50505050565b61108461107e611290565b83611351565b6110c3576040517f08c379a00000000000000000000000000000000000000000000000000000000081526004016110ba906126d1565b60405180910390fd5b6110cf84848484611888565b50505050565b60606110e082611245565b60006110ea6118e4565b9050600081511161110a5760405180602001604052806000815250611135565b80611114846118fb565b604051602001611125929190612a27565b6040516020818303038152906040525b915050919050565b565b600047905090565b6000600560008473ffffffffffffffffffffffffffffffffffffffff1673ffffffffffffffffffffffffffffffffffffffff16815260200190815260200160002060008373ffffffffffffffffffffffffffffffffffffffff1673ffffffffffffffffffffffffffffffffffffffff16815260200190815260200160002060009054906101000a900460ff16905092915050565b60007f01ffc9a7000000000000000000000000000000000000000000000000000000007bffffffffffffffffffffffffffffffffffffffffffffffffffffffff1916827bffffffffffffffffffffffffffffffffffffffffffffffffffffffff1916149050919050565b61124e816119c9565b61128d576040517f08c379a0000000000000000000000000000000000000000000000000000000008152600401611284906127a9565b60405180910390fd5b50565b600033905090565b816004600083815260200190815260200160002060006101000a81548173ffffffffffffffffffffffffffffffffffffffff021916908373ffffffffffffffffffffffffffffffffffffffff160217905550808273ffffffffffffffffffffffffffffffffffffffff1661130b83610b85565b73ffffffffffffffffffffffffffffffffffffffff167f8c5be1e5ebec7d5bd14f71427d1e84f3dd0314c0f7b2291e5b200ac8c7c3b92560405160405180910390a45050565b60008061135d83610b85565b90508073ffffffffffffffffffffffffffffffffffffffff168473ffffffffffffffffffffffffffffffffffffffff16148061139f575061139e8185611147565b5b806113dd57508373ffffffffffffffffffffffffffffffffffffffff166113c5846107e4565b73ffffffffffffffffffffffffffffffffffffffff16145b91505092915050565b8273ffffffffffffffffffffffffffffffffffffffff1661140682610b85565b73ffffffffffffffffffffffffffffffffffffffff161461145c576040517f08c379a000000000000000000000000000000000000000000000000000000000815260040161145390612abd565b60405180910390fd5b600073ffffffffffffffffffffffffffffffffffffffff168273ffffffffffffffffffffffffffffffffffffffff16036114cb576040517f08c379a00000000000000000000000000000000000000000000000000000000081526004016114c290612b4f565b60405180910390fd5b6114d88383836001611a0a565b8273ffffffffffffffffffffffffffffffffffffffff166114f882610b85565b73ffffffffffffffffffffffffffffffffffffffff161461154e576040517f08c379a000000000000000000000000000000000000000000000000000000000815260040161154590612abd565b60405180910390fd5b6004600082815260200190815260200160002060006101000a81549073ffffffffffffffffffffffffffffffffffffffff02191690556001600360008573ffffffffffffffffffffffffffffffffffffffff1673ffffffffffffffffffffffffffffffffffffffff168152602001908152602001600020600082825403925050819055506001600360008473ffffffffffffffffffffffffffffffffffffffff1673ffffffffffffffffffffffffffffffffffffffff16815260200190815260200160002060008282540192505081905550816002600083815260200190815260200160002060006101000a81548173ffffffffffffffffffffffffffffffffffffffff021916908373ffffffffffffffffffffffffffffffffffffffff160217905550808273ffffffffffffffffffffffffffffffffffffffff168473ffffffffffffffffffffffffffffffffffffffff167fddf252ad1be2c89b69c2b068fc378daa952ba7f163c4a11628f55a4df523b3ef60405160405180910390a46116da8383836001611b30565b505050565b60006002600083815260200190815260200160002060009054906101000a900473ffffffffffffffffffffffffffffffffffffffff169050919050565b8173ffffffffffffffffffffffffffffffffffffffff168373ffffffffffffffffffffffffffffffffffffffff160361178a576040517f08c379a000000000000000000000000000000000000000000000000000000000815260040161178190612bbb565b60405180910390fd5b80600560008573ffffffffffffffffffffffffffffffffffffffff1673ffffffffffffffffffffffffffffffffffffffff16815260200190815260200160002060008473ffffffffffffffffffffffffffffffffffffffff1673ffffffffffffffffffffffffffffffffffffffff16815260200190815260200160002060006101000a81548160ff0219169083151502179055508173ffffffffffffffffffffffffffffffffffffffff168373ffffffffffffffffffffffffffffffffffffffff167f17307eab39ab6107e8899845ad3d59bd9653f200f220920489ca2b5937696c318360405161187b9190611ee7565b60405180910390a3505050565b6118938484846113e6565b61189f84848484611b36565b6118de576040517f08c379a00000000000000000000000000000000000000000000000000000000081526004016118d590612c4d565b60405180910390fd5b50505050565b606060405180602001604052806000815250905090565b60606000600161190a84611cbd565b01905060008167ffffffffffffffff8111156119295761192861223f565b5b6040519080825280601f01601f19166020018201604052801561195b5781602001600182028036833780820191505090505b509050600082602001820190505b6001156119be578080600190039150507f3031323334353637383961626364656600000000000000000000000000000000600a86061a8153600a85816119b2576119b1612c6d565b5b04945060008503611969575b819350505050919050565b60008073ffffffffffffffffffffffffffffffffffffffff166119eb836116df565b73ffffffffffffffffffffffffffffffffffffffff1614159050919050565b6001811115611b2a57600073ffffffffffffffffffffffffffffffffffffffff168473ffffffffffffffffffffffffffffffffffffffff1614611a9e5780600360008673ffffffffffffffffffffffffffffffffffffffff1673ffffffffffffffffffffffffffffffffffffffff1681526020019081526020016000206000828254611a969190612ccb565b925050819055505b600073ffffffffffffffffffffffffffffffffffffffff168373ffffffffffffffffffffffffffffffffffffffff1614611b295780600360008573ffffffffffffffffffffffffffffffffffffffff1673ffffffffffffffffffffffffffffffffffffffff1681526020019081526020016000206000828254611b219190612cff565b925050819055505b5b50505050565b50505050565b6000611b578473ffffffffffffffffffffffffffffffffffffffff16611e10565b15611cb0578373ffffffffffffffffffffffffffffffffffffffff1663150b7a02611b80611290565b8786866040518563ffffffff1660e01b8152600401611ba29493929190612d88565b6020604051808303816000875af1925050508015611bde57506040513d601f19601f82011682018060405250810190611bdb9190612de9565b60015b611c60573d8060008114611c0e576040519150601f19603f3d011682016040523d82523d6000602084013e611c13565b606091505b506000815103611c58576040517f08c379a0000000000000000000000000000000000000000000000000000000008152600401611c4f90612c4d565b60405180910390fd5b805181602001fd5b63150b7a0260e01b7bffffffffffffffffffffffffffffffffffffffffffffffffffffffff1916817bffffffffffffffffffffffffffffffffffffffffffffffffffffffff191614915050611cb5565b600190505b949350505050565b600080600090507a184f03e93ff9f4daa797ed6e38ed64bf6a1f0100000000000000008310611d1b577a184f03e93ff9f4daa797ed6e38ed64bf6a1f0100000000000000008381611d1157611d10612c6d565b5b0492506040810190505b6d04ee2d6d415b85acef81000000008310611d58576d04ee2d6d415b85acef81000000008381611d4e57611d4d612c6d565b5b0492506020810190505b662386f26fc100008310611d8757662386f26fc100008381611d7d57611d7c612c6d565b5b0492506010810190505b6305f5e1008310611db0576305f5e1008381611da657611da5612c6d565b5b0492506008810190505b6127108310611dd5576127108381611dcb57611dca612c6d565b5b0492506004810190505b60648310611df85760648381611dee57611ded612c6d565b5b0492506002810190505b600a8310611e07576001810190505b80915050919050565b6000808273ffffffffffffffffffffffffffffffffffffffff163b119050919050565b6000604051905090565b600080fd5b600080fd5b60007fffffffff0000000000000000000000000000000000000000000000000000000082169050919050565b611e7c81611e47565b8114611e8757600080fd5b50565b600081359050611e9981611e73565b92915050565b600060208284031215611eb557611eb4611e3d565b5b6000611ec384828501611e8a565b91505092915050565b60008115159050919050565b611ee181611ecc565b82525050565b6000602082019050611efc6000830184611ed8565b92915050565b600073ffffffffffffffffffffffffffffffffffffffff82169050919050565b6000611f2d82611f02565b9050919050565b611f3d81611f22565b8114611f4857600080fd5b50565b600081359050611f5a81611f34565b92915050565b600060208284031215611f7657611f75611e3d565b5b6000611f8484828501611f4b565b91505092915050565b600081519050919050565b600082825260208201905092915050565b60005b83811015611fc7578082015181840152602081019050611fac565b60008484015250505050565b6000601f19601f8301169050919050565b6000611fef82611f8d565b611ff98185611f98565b9350612009818560208601611fa9565b61201281611fd3565b840191505092915050565b600060208201905081810360008301526120378184611fe4565b905092915050565b6000819050919050565b6120528161203f565b811461205d57600080fd5b50565b60008135905061206f81612049565b92915050565b60006020828403121561208b5761208a611e3d565b5b600061209984828501612060565b91505092915050565b6120ab81611f22565b82525050565b60006020820190506120c660008301846120a2565b92915050565b600080604083850312156120e3576120e2611e3d565b5b60006120f185828601611f4b565b925050602061210285828601612060565b9150509250929050565b60008060006060848603121561212557612124611e3d565b5b600061213386828701611f4b565b935050602061214486828701611f4b565b925050604061215586828701612060565b9150509250925092565b6121688161203f565b82525050565b6000602082019050612183600083018461215f565b92915050565b61219281611ecc565b811461219d57600080fd5b50565b6000813590506121af81612189565b92915050565b600080604083850312156121cc576121cb611e3d565b5b60006121da85828601611f4b565b92505060206121eb858286016121a0565b9150509250929050565b6000806040838503121561220c5761220b611e3d565b5b600061221a85828601612060565b925050602061222b85828601611f4b565b9150509250929050565b600080fd5b600080fd5b7f4e487b7100000000000000000000000000000000000000000000000000000000600052604160045260246000fd5b61227782611fd3565b810181811067ffffffffffffffff821117156122965761229561223f565b5b80604052505050565b60006122a9611e33565b90506122b5828261226e565b919050565b600067ffffffffffffffff8211156122d5576122d461223f565b5b6122de82611fd3565b9050602081019050919050565b82818337600083830152505050565b600061230d612308846122ba565b61229f565b9050828152602081018484840111156123295761232861223a565b5b6123348482856122eb565b509392505050565b600082601f83011261235157612350612235565b5b81356123618482602086016122fa565b91505092915050565b6000806000806080858703121561238457612383611e3d565b5b600061239287828801611f4b565b94505060206123a387828801611f4b565b93505060406123b487828801612060565b925050606085013567ffffffffffffffff8111156123d5576123d4611e42565b5b6123e18782880161233c565b91505092959194509250565b6000806040838503121561240457612403611e3d565b5b600061241285828601611f4b565b925050602061242385828601611f4b565b9150509250929050565b7f4d75737420626520636f6e7472616374206f776e657200000000000000000000600082015250565b6000612463601683611f98565b915061246e8261242d565b602082019050919050565b6000602082019050818103600083015261249281612456565b9050919050565b6000815190506124a881612049565b92915050565b6000602082840312156124c4576124c3611e3d565b5b60006124d284828501612499565b91505092915050565b7f4e487b7100000000000000000000000000000000000000000000000000000000600052602260045260246000fd5b6000600282049050600182168061252257607f821691505b602082108103612535576125346124db565b5b50919050565b7f4552433732313a20617070726f76616c20746f2063757272656e74206f776e6560008201527f7200000000000000000000000000000000000000000000000000000000000000602082015250565b6000612597602183611f98565b91506125a28261253b565b604082019050919050565b600060208201905081810360008301526125c68161258a565b9050919050565b7f4552433732313a20617070726f76652063616c6c6572206973206e6f7420746f60008201527f6b656e206f776e6572206f7220617070726f76656420666f7220616c6c000000602082015250565b6000612629603d83611f98565b9150612634826125cd565b604082019050919050565b600060208201905081810360008301526126588161261c565b9050919050565b7f4552433732313a2063616c6c6572206973206e6f7420746f6b656e206f776e6560008201527f72206f7220617070726f76656400000000000000000000000000000000000000602082015250565b60006126bb602d83611f98565b91506126c68261265f565b604082019050919050565b600060208201905081810360008301526126ea816126ae565b9050919050565b7f41646472657373206e6f7420666f756e6420696e2077686974656c6973740000600082015250565b6000612727601e83611f98565b9150612732826126f1565b602082019050919050565b600060208201905081810360008301526127568161271a565b9050919050565b7f4552433732313a20696e76616c696420746f6b656e2049440000000000000000600082015250565b6000612793601883611f98565b915061279e8261275d565b602082019050919050565b600060208201905081810360008301526127c281612786565b9050919050565b7f4552433732313a2061646472657373207a65726f206973206e6f74206120766160008201527f6c6964206f776e65720000000000000000000000000000000000000000000000602082015250565b6000612825602983611f98565b9150612830826127c9565b604082019050919050565b6000602082019050818103600083015261285481612818565b9050919050565b7f4164647265737320616c72656164792077686974656c69737465640000000000600082015250565b6000612891601b83611f98565b915061289c8261285b565b602082019050919050565b600060208201905081810360008301526128c081612884565b9050919050565b7f496e76616c696420616464726573730000000000000000000000000000000000600082015250565b60006128fd600f83611f98565b9150612908826128c7565b602082019050919050565b6000602082019050818103600083015261292c816128f0565b9050919050565b7f436f6e7472616374206d757374206861766520612062616c616e63652067726560008201527f61746572207468616e206f7220657175616c20746f2074686520616d6f756e7460208201527f206265696e67207472616e736665727265640000000000000000000000000000604082015250565b60006129b5605283611f98565b91506129c082612933565b606082019050919050565b600060208201905081810360008301526129e4816129a8565b9050919050565b600081905092915050565b6000612a0182611f8d565b612a0b81856129eb565b9350612a1b818560208601611fa9565b80840191505092915050565b6000612a3382856129f6565b9150612a3f82846129f6565b91508190509392505050565b7f4552433732313a207472616e736665722066726f6d20696e636f72726563742060008201527f6f776e6572000000000000000000000000000000000000000000000000000000602082015250565b6000612aa7602583611f98565b9150612ab282612a4b565b604082019050919050565b60006020820190508181036000830152612ad681612a9a565b9050919050565b7f4552433732313a207472616e7366657220746f20746865207a65726f2061646460008201527f7265737300000000000000000000000000000000000000000000000000000000602082015250565b6000612b39602483611f98565b9150612b4482612add565b604082019050919050565b60006020820190508181036000830152612b6881612b2c565b9050919050565b7f4552433732313a20617070726f766520746f2063616c6c657200000000000000600082015250565b6000612ba5601983611f98565b9150612bb082612b6f565b602082019050919050565b60006020820190508181036000830152612bd481612b98565b9050919050565b7f4552433732313a207472616e7366657220746f206e6f6e20455243373231526560008201527f63656976657220696d706c656d656e7465720000000000000000000000000000602082015250565b6000612c37603283611f98565b9150612c4282612bdb565b604082019050919050565b60006020820190508181036000830152612c6681612c2a565b9050919050565b7f4e487b7100000000000000000000000000000000000000000000000000000000600052601260045260246000fd5b7f4e487b7100000000000000000000000000000000000000000000000000000000600052601160045260246000fd5b6000612cd68261203f565b9150612ce18361203f565b9250828203905081811115612cf957612cf8612c9c565b5b92915050565b6000612d0a8261203f565b9150612d158361203f565b9250828201905080821115612d2d57612d2c612c9c565b5b92915050565b600081519050919050565b600082825260208201905092915050565b6000612d5a82612d33565b612d648185612d3e565b9350612d74818560208601611fa9565b612d7d81611fd3565b840191505092915050565b6000608082019050612d9d60008301876120a2565b612daa60208301866120a2565b612db7604083018561215f565b8181036060830152612dc98184612d4f565b905095945050505050565b600081519050612de381611e73565b92915050565b600060208284031215612dff57612dfe611e3d565b5b6000612e0d84828501612dd4565b9150509291505056fea26469706673582212203635687af7eb76b01d401ea7b9ad4cd74ed48c8d28f9487314fdc9ac8c4d040c64736f6c63430008110033",
  "linkReferences": {},
  "deployedLinkReferences": {}
}